{
  "contractName": "RandomNumberOracle",
  "abi": [
    {
      "constant": true,
      "inputs": [],
      "name": "r_number",
      "outputs": [
        {
          "name": "",
          "type": "uint256"
        }
      ],
      "payable": false,
      "stateMutability": "view",
      "type": "function"
    },
    {
      "anonymous": false,
      "inputs": [],
      "name": "RequestRandom",
      "type": "event"
    },
    {
      "constant": false,
      "inputs": [],
      "name": "requestRandom",
      "outputs": [
        {
          "name": "",
          "type": "string"
        }
      ],
      "payable": false,
      "stateMutability": "nonpayable",
      "type": "function"
    },
    {
      "constant": false,
      "inputs": [
        {
          "name": "r",
          "type": "uint256"
        }
      ],
      "name": "randomResponse",
      "outputs": [],
      "payable": false,
      "stateMutability": "nonpayable",
      "type": "function"
    },
    {
      "constant": true,
      "inputs": [],
      "name": "getr_number",
      "outputs": [
        {
          "name": "",
          "type": "uint256"
        }
      ],
      "payable": false,
      "stateMutability": "view",
      "type": "function"
    }
  ],
  "bytecode": "0x60806040526000805534801561001457600080fd5b506101ec806100246000396000f3fe608060405234801561001057600080fd5b506004361061004c5760003560e01c8063027716141461005157806308d938bb1461006f5780639fb8b7271461009d578063da9f7550146100bb575b600080fd5b61005961013e565b6040518082815260200191505060405180910390f35b61009b6004803603602081101561008557600080fd5b8101908080359060200190929190505050610147565b005b6100a5610151565b6040518082815260200191505060405180910390f35b6100c3610157565b6040518080602001828103825283818151815260200191508051906020019080838360005b838110156101035780820151818401526020810190506100e8565b50505050905090810190601f1680156101305780820380516001836020036101000a031916815260200191505b509250505060405180910390f35b60008054905090565b8060008190555050565b60005481565b60607f07ad43157ecb1fd531df787b31082c3906bed3f6a912cfcef8cd21c0ac17506a60405160405180910390a16040518060400160405280600481526020017f73656e640000000000000000000000000000000000000000000000000000000081525090509056fea165627a7a72305820aa197ed7de43693fb0d43a9d08ca1704500ca4d0ecc5e5f29180a637010fadcd0029",
  "source": "pragma solidity >=0.4.21 <0.7.0;\r\n\r\ncontract RandomNumberOracle {\r\n    event RequestRandom();\r\n    uint public r_number = 0;\r\n\r\n    function requestRandom() public  returns (string memory) {\r\n        emit RequestRandom();\r\n        return \"send\";\r\n    }\r\n\r\n    function randomResponse(uint r) public {\r\n       r_number = r;\r\n    }\r\n\r\n    function getr_number() public view returns (uint) {\r\n        return r_number;\r\n    }\r\n}",
  "sourcePath": "C:/Users/Admin/Projekte/Ethereum/binary_contract/contracts/RandomNumberOracle.sol",
  "compiler": {
    "name": "solc",
    "version": "0.5.8+commit.23d335f2.Emscripten.clang"
  },
  "schemaVersion": "3.0.11",
  "updatedAt": "2020-01-23T21:16:49.005Z",
  "devdoc": {
    "methods": {}
  },
  "userdoc": {
    "methods": {}
  }
}