{
  "contractName": "Test",
  "abi": [
    {
      "constant": true,
      "inputs": [],
      "name": "startTime",
      "outputs": [
        {
          "name": "",
          "type": "uint256"
        }
      ],
      "payable": false,
      "stateMutability": "view",
      "type": "function"
    },
    {
      "constant": true,
      "inputs": [],
      "name": "owner",
      "outputs": [
        {
          "name": "",
          "type": "address"
        }
      ],
      "payable": false,
      "stateMutability": "view",
      "type": "function"
    },
    {
      "inputs": [],
      "payable": false,
      "stateMutability": "nonpayable",
      "type": "constructor"
    },
    {
      "constant": true,
      "inputs": [],
      "name": "tmp",
      "outputs": [
        {
          "name": "",
          "type": "int256"
        }
      ],
      "payable": false,
      "stateMutability": "view",
      "type": "function"
    },
    {
      "constant": false,
      "inputs": [],
      "name": "callThisToStart",
      "outputs": [],
      "payable": false,
      "stateMutability": "nonpayable",
      "type": "function"
    },
    {
      "constant": false,
      "inputs": [],
      "name": "callThisToStop",
      "outputs": [],
      "payable": false,
      "stateMutability": "nonpayable",
      "type": "function"
    },
    {
      "constant": true,
      "inputs": [],
      "name": "doSomething",
      "outputs": [
        {
          "name": "",
          "type": "int256"
        }
      ],
      "payable": false,
      "stateMutability": "view",
      "type": "function"
    }
  ],
  "bytecode": "0x608060405234801561001057600080fd5b50336000806101000a81548173ffffffffffffffffffffffffffffffffffffffff021916908373ffffffffffffffffffffffffffffffffffffffff1602179055506101b6806100606000396000f3fe608060405234801561001057600080fd5b50600436106100625760003560e01c80634192610e1461006757806378e9792514610071578063826926791461008f5780638da5cb5b146100ad578063b518a776146100f7578063ea2a959914610115575b600080fd5b61006f61011f565b005b610079610129565b6040518082815260200191505060405180910390f35b61009761012f565b6040518082815260200191505060405180910390f35b6100b561013e565b604051808273ffffffffffffffffffffffffffffffffffffffff1673ffffffffffffffffffffffffffffffffffffffff16815260200191505060405180910390f35b6100ff610163565b6040518082815260200191505060405180910390f35b61011d610181565b005b6000600181905550565b60015481565b6000610139610163565b905090565b6000809054906101000a900473ffffffffffffffffffffffffffffffffffffffff1681565b600080600154141561017457600080fd5b6001544203607803905090565b4260018190555056fea165627a7a7230582006c72d3d1443004dbc078e6e9e2f9ca9e1ec3716fd82a3356966839fb93a25190029",
  "source": "pragma solidity >=0.4.21 <0.7.0;\r\n\r\ncontract Test {\r\n  address public owner;\r\n  uint public startTime;\r\n\r\n  constructor() public {\r\n    owner = msg.sender;\r\n  }\r\n\r\n  function tmp() public view returns(int){\r\n    require(startTime != 0);\r\n    return int((120 seconds)-(now - startTime));\r\n  }\r\n\r\n  function callThisToStart() public {\r\n    startTime = now;\r\n  }\r\n\r\n  function callThisToStop() public {\r\n    startTime = 0;\r\n  }\r\n\r\n  function doSomething() public view returns (int){\r\n    return tmp();\r\n  }\r\n\r\n}",
  "sourcePath": "C:/Users/Admin/Projekte/Ethereum/binary_contract/contracts/Test.sol",
  "compiler": {
    "name": "solc",
    "version": "0.5.8+commit.23d335f2.Emscripten.clang"
  },
  "schemaVersion": "3.0.11",
  "updatedAt": "2020-01-23T21:16:48.658Z",
  "devdoc": {
    "methods": {}
  },
  "userdoc": {
    "methods": {}
  }
}